{
  "_format": "hh-sol-artifact-1",
  "contractName": "MiniSwap",
  "sourceName": "contracts/MiniSwap.sol",
  "abi": [
    {
      "inputs": [
        {
          "internalType": "address",
          "name": "_tokenA",
          "type": "address"
        },
        {
          "internalType": "address",
          "name": "_tokenB",
          "type": "address"
        },
        {
          "internalType": "uint256",
          "name": "_rate",
          "type": "uint256"
        }
      ],
      "stateMutability": "nonpayable",
      "type": "constructor"
    },
    {
      "anonymous": false,
      "inputs": [
        {
          "indexed": true,
          "internalType": "address",
          "name": "user",
          "type": "address"
        },
        {
          "indexed": false,
          "internalType": "address",
          "name": "tokenIn",
          "type": "address"
        },
        {
          "indexed": false,
          "internalType": "address",
          "name": "tokenOut",
          "type": "address"
        },
        {
          "indexed": false,
          "internalType": "uint256",
          "name": "amountIn",
          "type": "uint256"
        },
        {
          "indexed": false,
          "internalType": "uint256",
          "name": "amountOut",
          "type": "uint256"
        }
      ],
      "name": "Swapped",
      "type": "event"
    },
    {
      "inputs": [
        {
          "internalType": "uint256",
          "name": "amountIn",
          "type": "uint256"
        },
        {
          "internalType": "address",
          "name": "from",
          "type": "address"
        },
        {
          "internalType": "address",
          "name": "to",
          "type": "address"
        }
      ],
      "name": "getAmountOut",
      "outputs": [
        {
          "internalType": "uint256",
          "name": "",
          "type": "uint256"
        }
      ],
      "stateMutability": "view",
      "type": "function"
    },
    {
      "inputs": [
        {
          "internalType": "address",
          "name": "token",
          "type": "address"
        },
        {
          "internalType": "address",
          "name": "user",
          "type": "address"
        }
      ],
      "name": "getBalance",
      "outputs": [
        {
          "internalType": "uint256",
          "name": "",
          "type": "uint256"
        }
      ],
      "stateMutability": "view",
      "type": "function"
    },
    {
      "inputs": [],
      "name": "rate",
      "outputs": [
        {
          "internalType": "uint256",
          "name": "",
          "type": "uint256"
        }
      ],
      "stateMutability": "view",
      "type": "function"
    },
    {
      "inputs": [
        {
          "internalType": "uint256",
          "name": "amountIn",
          "type": "uint256"
        },
        {
          "internalType": "address",
          "name": "from",
          "type": "address"
        },
        {
          "internalType": "address",
          "name": "to",
          "type": "address"
        }
      ],
      "name": "swap",
      "outputs": [],
      "stateMutability": "nonpayable",
      "type": "function"
    },
    {
      "inputs": [],
      "name": "tokenA",
      "outputs": [
        {
          "internalType": "address",
          "name": "",
          "type": "address"
        }
      ],
      "stateMutability": "view",
      "type": "function"
    },
    {
      "inputs": [],
      "name": "tokenB",
      "outputs": [
        {
          "internalType": "address",
          "name": "",
          "type": "address"
        }
      ],
      "stateMutability": "view",
      "type": "function"
    }
  ],
  "bytecode": "0x60806040523480156200001157600080fd5b5060405162000d6e38038062000d6e83398181016040528101906200003791906200016d565b826000806101000a81548173ffffffffffffffffffffffffffffffffffffffff021916908373ffffffffffffffffffffffffffffffffffffffff16021790555081600160006101000a81548173ffffffffffffffffffffffffffffffffffffffff021916908373ffffffffffffffffffffffffffffffffffffffff16021790555080600281905550505050620001c9565b600080fd5b600073ffffffffffffffffffffffffffffffffffffffff82169050919050565b6000620000fa82620000cd565b9050919050565b6200010c81620000ed565b81146200011857600080fd5b50565b6000815190506200012c8162000101565b92915050565b6000819050919050565b620001478162000132565b81146200015357600080fd5b50565b60008151905062000167816200013c565b92915050565b600080600060608486031215620001895762000188620000c8565b5b600062000199868287016200011b565b9350506020620001ac868287016200011b565b9250506040620001bf8682870162000156565b9150509250925092565b610b9580620001d96000396000f3fe608060405234801561001057600080fd5b50600436106100625760003560e01c80630fc63d10146100675780632b7f0923146100855780632c4e722e146100a15780635e1e6325146100bf5780635f64b55b146100ef578063d4fac45d1461010d575b600080fd5b61006f61013d565b60405161007c919061071a565b60405180910390f35b61009f600480360381019061009a919061079c565b610161565b005b6100a9610460565b6040516100b691906107fe565b60405180910390f35b6100d960048036038101906100d4919061079c565b610466565b6040516100e691906107fe565b60405180910390f35b6100f761062f565b604051610104919061071a565b60405180910390f35b61012760048036038101906101229190610819565b610655565b60405161013491906107fe565b60405180910390f35b60008054906101000a900473ffffffffffffffffffffffffffffffffffffffff1681565b60008054906101000a900473ffffffffffffffffffffffffffffffffffffffff1673ffffffffffffffffffffffffffffffffffffffff168273ffffffffffffffffffffffffffffffffffffffff161480156102095750600160009054906101000a900473ffffffffffffffffffffffffffffffffffffffff1673ffffffffffffffffffffffffffffffffffffffff168173ffffffffffffffffffffffffffffffffffffffff16145b806102b85750600160009054906101000a900473ffffffffffffffffffffffffffffffffffffffff1673ffffffffffffffffffffffffffffffffffffffff168273ffffffffffffffffffffffffffffffffffffffff161480156102b7575060008054906101000a900473ffffffffffffffffffffffffffffffffffffffff1673ffffffffffffffffffffffffffffffffffffffff168173ffffffffffffffffffffffffffffffffffffffff16145b5b6102f7576040517f08c379a00000000000000000000000000000000000000000000000000000000081526004016102ee906108b6565b60405180910390fd5b8173ffffffffffffffffffffffffffffffffffffffff166323b872dd3330866040518463ffffffff1660e01b8152600401610334939291906108d6565b6020604051808303816000875af1158015610353573d6000803e3d6000fd5b505050506040513d601f19601f820116820180604052508101906103779190610945565b506000610385848484610466565b90508173ffffffffffffffffffffffffffffffffffffffff1663a9059cbb33836040518363ffffffff1660e01b81526004016103c2929190610972565b6020604051808303816000875af11580156103e1573d6000803e3d6000fd5b505050506040513d601f19601f820116820180604052508101906104059190610945565b503373ffffffffffffffffffffffffffffffffffffffff167f6782190c91d4a7e8ad2a867deed6ec0a970cab8ff137ae2bd4abd92b3810f4d384848785604051610452949392919061099b565b60405180910390a250505050565b60025481565b60008060009054906101000a900473ffffffffffffffffffffffffffffffffffffffff1673ffffffffffffffffffffffffffffffffffffffff168373ffffffffffffffffffffffffffffffffffffffff161480156105115750600160009054906101000a900473ffffffffffffffffffffffffffffffffffffffff1673ffffffffffffffffffffffffffffffffffffffff168273ffffffffffffffffffffffffffffffffffffffff16145b1561052b57600254846105249190610a0f565b9050610628565b600160009054906101000a900473ffffffffffffffffffffffffffffffffffffffff1673ffffffffffffffffffffffffffffffffffffffff168373ffffffffffffffffffffffffffffffffffffffff161480156105d3575060008054906101000a900473ffffffffffffffffffffffffffffffffffffffff1673ffffffffffffffffffffffffffffffffffffffff168273ffffffffffffffffffffffffffffffffffffffff16145b156105ed57600254846105e69190610a80565b9050610628565b6040517f08c379a000000000000000000000000000000000000000000000000000000000815260040161061f90610afd565b60405180910390fd5b9392505050565b600160009054906101000a900473ffffffffffffffffffffffffffffffffffffffff1681565b60008273ffffffffffffffffffffffffffffffffffffffff166370a08231836040518263ffffffff1660e01b8152600401610690919061071a565b602060405180830381865afa1580156106ad573d6000803e3d6000fd5b505050506040513d601f19601f820116820180604052508101906106d19190610b32565b905092915050565b600073ffffffffffffffffffffffffffffffffffffffff82169050919050565b6000610704826106d9565b9050919050565b610714816106f9565b82525050565b600060208201905061072f600083018461070b565b92915050565b600080fd5b6000819050919050565b61074d8161073a565b811461075857600080fd5b50565b60008135905061076a81610744565b92915050565b610779816106f9565b811461078457600080fd5b50565b60008135905061079681610770565b92915050565b6000806000606084860312156107b5576107b4610735565b5b60006107c38682870161075b565b93505060206107d486828701610787565b92505060406107e586828701610787565b9150509250925092565b6107f88161073a565b82525050565b600060208201905061081360008301846107ef565b92915050565b600080604083850312156108305761082f610735565b5b600061083e85828601610787565b925050602061084f85828601610787565b9150509250929050565b600082825260208201905092915050565b7f496e76616c696420746f6b656e20706169720000000000000000000000000000600082015250565b60006108a0601283610859565b91506108ab8261086a565b602082019050919050565b600060208201905081810360008301526108cf81610893565b9050919050565b60006060820190506108eb600083018661070b565b6108f8602083018561070b565b61090560408301846107ef565b949350505050565b60008115159050919050565b6109228161090d565b811461092d57600080fd5b50565b60008151905061093f81610919565b92915050565b60006020828403121561095b5761095a610735565b5b600061096984828501610930565b91505092915050565b6000604082019050610987600083018561070b565b61099460208301846107ef565b9392505050565b60006080820190506109b0600083018761070b565b6109bd602083018661070b565b6109ca60408301856107ef565b6109d760608301846107ef565b95945050505050565b7f4e487b7100000000000000000000000000000000000000000000000000000000600052601160045260246000fd5b6000610a1a8261073a565b9150610a258361073a565b9250828202610a338161073a565b91508282048414831517610a4a57610a496109e0565b5b5092915050565b7f4e487b7100000000000000000000000000000000000000000000000000000000600052601260045260246000fd5b6000610a8b8261073a565b9150610a968361073a565b925082610aa657610aa5610a51565b5b828204905092915050565b7f496e76616c696420706169720000000000000000000000000000000000000000600082015250565b6000610ae7600c83610859565b9150610af282610ab1565b602082019050919050565b60006020820190508181036000830152610b1681610ada565b9050919050565b600081519050610b2c81610744565b92915050565b600060208284031215610b4857610b47610735565b5b6000610b5684828501610b1d565b9150509291505056fea264697066735822122041f694edf95e3bd6b2c7b09cd29f3e1c7f2032b8900029a8a661f032c1f76a9864736f6c63430008140033",
  "linkReferences": {},
  "deployedLinkReferences": {}
}